:020000040800F2
:1000000020070020B5010008551500084D1500080F
:100010005115000871020008691500080000000071
:100020000000000000000000000000005D15000856
:1000300019030008000000005915000861150008A8
:10004000CF010008CF010008CF010008CF01000850
:10005000CF010008CF010008CF010008CF01000840
:10006000CF010008CF010008CF010008CF01000830
:10007000CF010008CF010008CF010008CF01000820
:10008000CF010008CF010008CF010008CF01000810
:10009000CF010008CF010008CF010008CF01000800
:1000A000CF010008CF010008CF010008CF010008F0
:1000B000CF010008CF010008CF010008CF010008E0
:1000C000CF010008CF010008CF010008CF010008D0
:1000D000CF010008CF010008CF010008CF010008C0
:1000E000CF010008CF010008CF01000800F002F89E
:1000F00000F050F814A696E8000CB244B344DA4578
:1001000001D100F047F8BAE80F000FA696E83000DA
:10011000A5EB040504EB0607AAEB0704A7F101070A
:100120004FEA15154FEA3414A4F10104AC4201D38F
:1001300000F030F813F0010F18BFFB1A43F0010371
:1001400000F001F8DBE71847F4180000141900006C
:10015000103A24BF78C878C1FAD8520724BF30C8F3
:1001600030C144BF04680C60704700007047000055
:100170000023002400250026103A28BF78C1FBD8B0
:10018000520728BF30C148BF0B6070471FB51FBD65
:1001900010B510BD00F031F81146FFF7F7FF01F080
:1001A000E5F900F04FF803B4FFF7F2FF03BC00F0ED
:1001B00057F800000948804709480047FEE7FEE776
:1001C000FEE7FEE7FEE7FEE7FEE7FEE7FEE7FEE707
:1001D00004480549054A064B7047000065150008AC
:1001E000ED0000082001002020070020200300204F
:1001F00020030020704770477047754600F02CF8C8
:10020000AE4605006946534620F00700854618B003
:1002100020B5FFF7DDFFBDE820404FF000064FF0AE
:1002200000074FF000084FF0000BAC46ACE8C009E7
:10023000ACE8C009ACE8C009ACE8C00921F007018E
:100240008D46704710B50446AFF300802046BDE8E8
:100250001040FFF7A8BF00000048704718000020BA
:1002600001491820ABBEFEE72600020070470000DF
:10027000FEE7000040F20802C2F200021368436089
:1002800053688360128901608281704710B504460B
:10029000642000F0ABF80D20E0710020A4F8090004
:1002A0006079A279237A104418446FF00C02101A76
:1002B00002BA20684FEA124C211D0A224FF47A73C9
:1002C000A4F80BC0BDE8104001F004B8F0B581B04F
:1002D000044664200D460E0ACFB200F087F80620CF
:1002E000E0716079A27907EB1527237A384410442E
:1002F00018446FF00502101A02BA2068170C211D6D
:100300006672A5720A224FF47A73A4F80B7001B0DA
:10031000BDE8F04000F0DEBF70470000F0B581B0EE
:1003200040F2D405C2F2000540F600442846C4F26B
:10033000010400F01BFE204608210022002600F0E8
:1003400077F920460821012200F072F928684662F8
:10035000416A092908D8416A092905D8416A092949
:1003600002D8416A0A29F3D320460821002200F06E
:100370005FF900F063F900F10A0600BF2046102182
:1003800000F050F918B900F059F98642F6D82868FB
:10039000466A00F053F900F1320700BF20461021F1
:1003A00000F040F918B100F049F98742F6D8286802
:1003B000406A801B01F01BFA4CF29C4246F6720325
:1003C000CBF22002C3F6A17301F024FA0023C3F696
:1003D000E073002201F01EFA01F0DAF9044632203F
:1003E00000F004F8204601B0F0BD0000B0B50446AE
:1003F00000F024F9054640F20000C2F20000007847
:10040000611C18BF044400BF00F018F9401BA04253
:10041000FAD3B0BD2DE9F04F82B00E68002E00F087
:10042000FD8041F20042C4F20102042340F2004E7A
:10043000904208BF03234FF6FF7CC4F2010E0093E5
:1004400000240123C1F2100C4FF0000A4FF0000904
:1004500044E000BF012704F00C030F229A402BEA6E
:10046000020207FA03F34FEA9A051A4346F82520D9
:100470004E6840F20C45F202DEF8082054BF22EA32
:10048000080242EA0802C4F20105CEF808202A68F0
:10049000B30254BF22EA080242EA08022A60B30308
:1004A000DEF8042054BF22EA080242EA0802F303FD
:1004B000CEF80420DEF800204FF0010354BF22EAFA
:1004C000080242EA0802CEF800200E680AF1010A8A
:1004D00036FA0AF204F1040400F0A08003FA0AFBE1
:1004E00016EA0B08F1D04E68664511DC122E55D87D
:1004F000DFE806F0340A44485454545454545454D5
:1005000054545454544C5000D1F80C9046E000BF61
:100510004FF6FF72C1F2210296420FDC0022C1F2B7
:10052000110296421AD00022C1F21202964215D050
:100530000022C1F22102964210D02FE00022C1F227
:10054000220296420AD00022C1F23102964205D020
:100550000022C1F23202964220D100BF8A684AB11D
:10056000012A14BFC0F814B0C0F810B04FF0080949
:1005700014E000BF4FF0040910E000BFCA6802F1A8
:1005800008090BE04FF0000908E000BFCA6802F15B
:10059000040903E0CA6802F10C0900BF22460646BE
:1005A000B8F5807F24BF203A043637680F25954080
:1005B00027EA050509FA02F22A433260CA79D2060F
:1005C0007FF583AF41F21803C4F202031A68AEF557
:1005D0007E7642F001021A601A6802F0010201926E
:1005E000019A2AF0030256F802B040F60002C4F263
:1005F0000102904210D040F60042C4F20102904243
:100600003FF428AF41F20002C4F20102009F904281
:1006100008BF02271FE700BF00271CE702B0BDE8A4
:10062000F08F00008068084018BF0120704700006C
:10063000002A08BF090401617047000040F21C1045
:10064000C2F200000068704740F2000040F21C1146
:10065000C2F20000C2F2000100780A68104408608B
:100660007047000080B542F20000C4F20200016849
:1006700041F010010160032000F07AF80F2000F033
:1006800005F800F027F8002080BD000070B540F2AA
:100690000006C2F2000640F214013278C2F20001F4
:1006A0004FF47A730968B3FBF2F20446B1FBF2F13E
:1006B000084600F077FB0F2C4FF0010508D838B939
:1006C0004FF0FF3021460022002500F025F874602D
:1006D000284670BD82B041F21800C4F202000168E1
:1006E000022241F001010160016801F00101019164
:1006F0000199416841F080514160406800F08050AC
:10070000009000980420C4F20100016862F31A61AD
:10071000016002B07047000010B54EF60C5CCEF2DE
:10072000000CDCF80030C3F3022E8EF00704042C1A
:1007300028BF0424BEF103034FF0FF3E0EFA04F479
:1007400038BF0023A14399400EFA03F39A431143A3
:1007500000F00F0200F160430901043A03F564431D
:100760006244002848BF02F10C03197010BD00005C
:100770004EF60C51CEF200010A684FF6FF031A4004
:1007800060F30A2242F0806040F0FD70086070471C
:10079000002804BF012070472DE9F04381B042F2E8
:1007A0000008C4F202080446D8F800000D4600F024
:1007B000070088420CD2D8F8000020F00700284338
:1007C000C8F80000D8F8000000F00700A8426CD17B
:1007D000206841F204098107C4F2020917D54107D4
:1007E00005D5D9F8001041F4E061C9F800100107FF
:1007F00005D5D9F8001041F46051C9F80010D9F8B6
:100800000010A26821F0F0011143C9F80010C007E0
:1008100042D1D8F8000000F00700A8420CD9D8F85F
:10082000000020F007002843C8F80000D8F80000B6
:1008300000F00700A84238D12068410707D5D9F851
:100840000010E26821F4E0611143C9F800100007CC
:1008500008D5D9F80000216920F4605040EAC100B1
:10086000C9F80000D9F8002002F00C00082841F275
:100870000020C0F27A0051D141F62A23C2F383410D
:10088000C0F60003595CD2033CD440F60010C0F21D
:100890003D00484342E000BF606802280AD00128BA
:1008A0002AD159F8041C890308D4012001B0BDE8FD
:1008B000F08300BF59F8041C8901F6D5D9F800105F
:1008C00021F003010843C9F80000FFF7B7FE064610
:1008D00041F28837D9F80000616800F00C00B0EBF5
:1008E000810F96D0FFF7AAFE801BB842F2D90320F1
:1008F00001B0BDE8F08300BF59F8041C8907D4D5C6
:10090000DCE700BFD9F8002041F62823C2F34042BB
:10091000C0F600039A5C4843B0FBF2F0D9F800102F
:1009200041F61022C1F30311C0F60002515C40F2FF
:10093000140220FA01F140F20400C2F20000006843
:10094000C2F200021160FFF7A1FE002001B0BDE875
:10095000F083000040F2140041F20401C2F20000F2
:10096000C4F202010068096841F62022C1F30221A5
:10097000C0F60002515CC8407047000040F214000D
:1009800041F20401C2F20000C4F2020100680968E9
:1009900041F62022C1F3C221C0F60002515CC840DA
:1009A00070470000002804BF012070472DE9F04186
:1009B00082B00446007841F20006C007C4F2020685
:1009C0000CD0706800F00C00042840F08180306882
:1009D000800303D56068002800F04E8120788007EE
:1009E0001BD5706810F00C0F09D0706800F00C0077
:1009F000082840F08B807068C00300F18780306861
:100A0000800703D52069012840F03681306861698C
:100A100020F0F80040EAC10030602078000713D4CD
:100A2000207840072CD4E569002D00F02081706803
:100A300000F00C00082840F0AF80012D40F00C8140
:100A4000012002B0BDE8F081A069002800F08C8090
:100A50000020C4F242200121C0F88014FFF7EEFD0F
:100A6000054600BF706A800700F1BA80FFF7E6FD17
:100A7000401B0228F6D9032002B0BDE8F08100BF78
:100A8000F0695FEAC00808D4F06940F08050F06176
:100A9000F06900F080500090009847F20007C4F21F
:100AA00000073868C0054DD4386840F4807038605D
:100AB000FFF7C4FD054600BF3868C00542D4FFF704
:100AC000BDFD401B6428F7D9032002B0BDE8F081CA
:100AD000706800F00C00082803D17068C0033FF56F
:100AE00076AF6068002800F00981B0F5A02F00F013
:100AF0001D81B0F5803F00F01D81306820F480300A
:100B00003060306820F4802017E100BF20690028A1
:100B100040F20000C4F2422000F08C80012101600C
:100B2000FFF78CFD054600BF306880073FF56EAFCC
:100B3000FFF784FD401B0228F6D9032002B0BDE870
:100B4000F08100BFE068002800F09A80052800F0DE
:100B5000B180012800F0B280306A20F001003062DC
:100B6000306A20F00400ACE00020C4F242200021F2
:100B7000C0F88014FFF762FD054600BF706A800769
:100B80007FF54EAFFFF75AFD401B0228F6D9032030
:100B900002B0BDE8F08100BF0027C4F24227002068
:100BA0003866FFF74BFD022D05460DD130688001F8
:100BB00040F1D680FFF742FD401B02284FF00300B2
:100BC000F4D902B0BDE8F081306880014FD5FFF75D
:100BD00035FD401B02284FF00300F5D9F1E700BFB7
:100BE00040F21400C2F20000006844F6D351C1F292
:100BF0006201A0FB0101480A019000BF00BF0198FB
:100C0000411E002801913FF40BAF00BF0198411E27
:100C1000002801913FF404AF00BF0198411E002855
:100C200001913FF4FDAE00BF0198411E00280191E3
:100C3000E4D1F5E600210160FFF700FD054600BFA5
:100C4000306880077FF5E9AEFFF7F8FC401B02280B
:100C50004FF00300F4D9B4E77068216A00F48032E1
:100C60008A4209D1616A00F47010884204D10020E0
:100C700002B0BDE8F08100BF012002B0BDE8F08104
:100C8000306A20F001003062306A20F004003062E7
:100C9000FFF7D4FC054641F2883700BF306A800771
:100CA00022D5FFF7CBFC401BB8424FF00300F5D92B
:100CB00087E700BF306A40F004003062306A40F0DD
:100CC00001003062FFF7BAFC054641F2883700BFE9
:100CD000306A800708D4FFF7B1FC401BB842F7D94F
:100CE000032002B0BDE8F081B8F1000F3FF59BAEE4
:100CF000F06920F08050F06195E600BF306820F484
:100D000080303060306820F480203060FFF796FC3F
:100D1000054600BF306880037FF560AEFFF78EFCAC
:100D2000401B64284FF00300F4D94AE7306840F4D0
:100D300080203060306840F480303060FFF77EFC07
:100D4000054600BF306880033FF548AEFFF776FCEC
:100D5000401B6428F6D9032002B0BDE8F08100BF33
:100D6000206AB0F5803F05D17168A26821F4003196
:100D7000114371607168626A21F474111143084370
:100D8000706001203866FFF759FC04463068800126
:100D90003FF56DAFFFF752FC001B02284FF0030038
:100DA000F4D90EE7411E0020B0EB116F1CBF0120EB
:100DB00070474EF21002CEF2000251604EF62351FF
:100DC000CEF20001F0230B70072190601160704794
:100DD00090F83C20012A4FF0020236D010B580F87E
:100DE0003D200268D2F804E0D2F808C00C682EF06A
:100DF0007003234340F2FF74C4F20004A242536024
:100E00000ADCB2F1804F13D040F20043C4F2000379
:100E10009A420DD011E000BF42F60043C4F2010334
:100E20009A4205D040F60003C4F200039A4204D16E
:100E300049682CF08003194391600121002280F859
:100E40003D1080F83C20BDE810401046704700007F
:100E5000002804BF0120704710B5044690F83D00FB
:100E600028B9002084F83C00204600F067F80220F2
:100E700084F83D00206840F2FF730268C4F200036A
:100E800042F6004C9842C4F2010C15DCB0F1804FE0
:100E90001AD040F20041C4F20001884214D09842B6
:100EA00018DCB0F1804F1DD040F20041C4F20001C7
:100EB000884217D01AE000BF604505D040F6000117
:100EC000C4F200018842EAD1A16822F070020A430C
:100ED0009842E6DD604505D040F60001C4F200010D
:100EE000884203D1216922F440720A43A36922F0A7
:100EF0008001D4F804E0E268194360450160C262F1
:100F0000C0F828E002D16169CCF8301001214161BC
:100F1000002084F8461084F83E1084F83F1084F8CE
:100F2000401084F8411084F8421084F8431084F88B
:100F3000441084F8451084F83D1010BD006842F656
:100F40000041C4F20101884218BF704781B041F2EC
:100F50001800C4F20200016841F4006101600068F9
:100F600000F400600090009801B0704790F83D10C8
:100F700001291CBF01207047022180F83D10006844
:100F800040F2FF71C4F20001884209DCB0F1804FE9
:100F900012D040F20041C4F2000188420CD012E0AD
:100FA00042F60041C4F20101884205D040F600013A
:100FB000C4F20001884206D1816801F007010629C8
:100FC00004BF00207047016841F00101016000206A
:100FD0007047000090F83C20012A4FF0020200F018
:100FE000C58080B580F83D20D0F800C04FF67772FC
:100FF000DCF8083023EA0202CCF808200B684F2BFB
:1010000028DC1F2B44DD202B45D0302B43D0402B38
:1010100040F0AE80D1F804E0C968DCF82030DCF89C
:10102000202022F00102CCF82020DCF8182022F049
:10103000F00242EA011123F00A0242EA0E02CCF861
:101040001810CCF82020DCF8081041F0470121F0FE
:10105000300180E06F2B27DDB3F5005F48D0B3F59A
:10106000805F7AD0702B40F08380D1E901E3C968BA
:10107000DCF8082043EA0E0322F47F4243EA012110
:101080001143CCF80810DCF8081041F0770162E059
:101090000BB1102B6CD1DCF8081021F07001194352
:1010A00041F0070157E000BF502B35D0602B5FD1D6
:1010B000D1F804E0C968DCF82030DCF8202022F008
:1010C0001002CCF82020DCF8182022F4704242EA0A
:1010D000013123F0A00242EA0E12CCF81810CCF82D
:1010E0002020DCF8081041F0670121F0100132E007
:1010F000D1E901E3C968DCF8082043EA0E0322F4D1
:101100007F4243EA01211143CCF80810DCF80810B3
:1011100041F480411FE000BFD1F804E0C968DCF869
:101120002030DCF8202022F00102CCF82020DCF86E
:10113000182022F0F00242EA011123F00A0242EAEA
:101140000E02CCF81810CCF82020DCF8081041F082
:10115000570121F02001CCF808100022012180F86D
:101160003D10002180F83C10BDE8804010467047DB
:101170000122F3E7002804BF0120704710B50446A0
:1011800090F8410028B9002084F84000204600F083
:1011900063F8242084F841002068D4E90212C3686F
:1011A00023F40053C360036923F440531A430261DC
:1011B000D4E904231143C268194341F20C639A43F2
:1011C0001143C1604169A26921F44071114343F6A2
:1011D0000002C4F201029042416103D0FFF7BAFB62
:1011E00002E000BFFFF7CAFBD4E9002319214843FE
:1011F0009900B0FBF1F048F21F5CC5F2EB1CA0FBBC
:101200000C314FF69C734909C0F6FF7301FB0300D4
:10121000322303EB0010A0FB0C03F02000EA531074
:1012200000EB0110C3F343110844906010692021C2
:1012300020F490401061506920F02A005061D0687D
:1012400040F40050D0600020606484F8411084F8BD
:101250004210606310BD000070B586B040F6000417
:10126000C4F20104006804F5405100268842049647
:1012700002D006B070BD00BF41F21800C4F20200F7
:10128000016802AD41F480410160016801F48041D0
:1012900001910199016841F004010160006829464B
:1012A00000F00400019001984FF4007002900220B9
:1012B0000390032005902046FFF7ACF84FF48060C0
:1012C000CDE90206204629460496FFF7A3F806B0AA
:1012D00070BD00002DE9F04381B0044690F8410054
:1012E000202840F0B180884600294FF0010000F02E
:1012F000D6801646002A00F0D280002060642120AB
:101300001D4684F84100FFF799F9A684E684A16898
:101310000646B1F5805F03D12069002800F098806F
:1013200047464FF00008E18C2068002900F09680C5
:1013300005F101090BE000BF47B317F8011B41603D
:10134000E18C0139E184E18C002900F0878001689B
:101350000906F1D4B9F1000F0AD0EDB1FFF76EF92B
:10136000801BA84218D8206801680906F6D5E3E773
:1013700001680906E0D4016809065CBF01685FEAFC
:101380000161D9D401680906F2D5D5E738F8021B06
:1013900000276FF35F21D2E7206850E8030F216830
:1013A00020F4D07041E80302BAB3206850E8030F7C
:1013B000216820F4D07041E8030272B3206850E83D
:1013C000030F216820F4D07041E803022AB320689B
:1013D00050E8030F216820F4D07041E80302002A8E
:1013E000DAD11AE0206850E8050F216820F00100EA
:1013F00041E80502DAB1206850E8050F216820F0C5
:10140000010041E8050292B1206850E8050F21680B
:1014100020F0010041E805024AB1206850E8050FBC
:10142000216820F0010041E80502002ADAD12020DD
:1014300084F8410084F84200002084F84000032032
:1014400001B0BDE8F08300BF022001B0BDE8F08329
:101450000027E18C206800297FF46AAF0168490603
:1014600019D4FDB1691C0DD10168490613D4016876
:1014700049065CBF01685FEA41610CD40168490616
:10148000F2D508E0FFF7DAF8801BA8420AD82068F6
:1014900000684006F6D5202084F84100002001B005
:1014A000BDE8F083206850E8030F216820F4D07075
:1014B00041E80302002A3ED0206850E8030F21686B
:1014C00020F4D07041E80302AAB3206850E8030F6B
:1014D000216820F4D07041E8030262B3206850E82C
:1014E000030F216820F4D07041E80302002AD9D10B
:1014F00021E000BF206850E8050F216820F00100BE
:1015000041E80502002A3FF492AF206850E8050F39
:10151000216820F0010041E80502002A3FF487AF6E
:10152000206850E8050F216820F0010041E805021D
:10153000002A3FF47CAF206850E8050F216820F0B6
:10154000010041E80502002AD4D170E7FEE700005F
:10155000FEE70000FEE70000704700007047000053
:10156000FFF772B870470000FEE7000090B0FFF789
:1015700079F800240120CDE90B44CDE90944069017
:101580000A904FF4E0104FF4803102250F9006A826
:10159000CDE90714CDE90D51FFF704FA20B1EFF3BF
:1015A000108072B6FEE700BF0F20CDE900054FF4B2
:1015B0008060CDE90304684602210294FFF7E8F851
:1015C00020B1EFF3108072B6FEE700BF41F21800C1
:1015D000C4F20200016840F6000441F020010160FD
:1015E0000168C4F2010401F0200106910699016826
:1015F000002241F00401016001684FF4006601F02F
:101600000401069106990168002741F00801016074
:1016100000684FF4006100F008000690069820462C
:10162000FFF706F804F580652846082100224FF0F0
:101630000809FEF7FDFF069606AE4FF0010A4FF0CF
:10164000030B20463146CDE907A7CDF824B0FEF7BD
:10165000E1FE4FF4805820463146CDE906870897D1
:10166000FEF7D8FE28463146CDE9069ACDE9087B3B
:10167000FEF7D0FE1020CDE9060728463146089730
:10168000FEF7C8FE40F2D40004F51051C2F200008B
:101690004FF6FF730997CDE90777CDE90077472229
:1016A00080E88600C0E90337C0E90577FFF7D0FB83
:1016B00020B1EFF3108072B6FEE700BF40F2D40015
:1016C000C2F2000006A9CDF81880FFF783FC28B10C
:1016D000EFF3108072B600BFFEE700BF40F2D40007
:1016E000C2F200006946FFF773FB28B1EFF31080E8
:1016F00072B600BFFEE700BF40F27806C2F20006F5
:1017000004F54051304640F8141F4FF4E1310022F7
:101710000C23C0E90112C0E90322C0E90532C2610D
:10172000FFF728FD20B1EFF3108072B6FEE700BF8F
:10173000351D06F114012846FEF79CFD28463C2184
:10174000FEF7C4FDFEF7EAFD05283060FAD828460A
:10175000FEF79CFD20464FF400610122FEF768FF72
:10176000FA2700BF20464FF480510122FEF760FFA8
:101770004620FEF73BFE20464FF480510022FEF744
:1017800057FF4620FEF732FE013FEBD1DAE70000BB
:101790004FEA41034FEA5353A3F58063D3F11E038D
:1017A000C8BFD3F1210C0CDD4FF0004242EAC12248
:1017B00042EA505232FA03FC8CEAE17CACEBE17075
:1017C0007047102BC4BF0020704703F5787CBCF134
:1017D000FF3F04D06FF0004282EA2100704770B5ED
:1017E00000F0C2F84992248000207047F2E7B0FA76
:1017F00080F310FA03F10AD0C3F11D0303F58063EF
:101800004FEA03524FEA415002EBD12170474FF0AB
:101810000000704770B5DFF848C11CEA111E1EBFFA
:101820001CEA13159EEA0C0F95EA0C0F00F06F806E
:1018300081EA03044EEAD47EAE4421EA4C1123EA45
:101840004C1341F4801143F48013AEF17F7EA1FB71
:10185000024CA0FB0365361955EB0C05A1FB034CAC
:101860004CF10003A0FB021C16EB0C06654153F182
:101870000003094218BF46F0010613F4007F0BD1A4
:101880004FEA03314FEA053041EA155140EA16505C
:1018900034036FF003020AE04FEAC3214FEAC52088
:1018A00041EA555140EA5650F4026FF0020202EB51
:1018B0002E4201EB025585EACE710AD05FEA440C54
:1018C00018BF24F0004450F1000041F1000120EA6B
:1018D000D47040F2FE7C624500D270BDA84214BFB5
:1018E0004FF080444FF04044002E08BF0024BEF16A
:1018F000806FA8BFA1F1C041BDE8704080F2828036
:1019000001F1C04101F000414FF0000070470CEAC6
:1019100013159EEA0C0F18BF95EA0C0F06D081EA4A
:10192000030E4FF000000EF0004170BD00F01CF8F7
:101930008900013E00F007B800F009B84FEA430CF7
:101940005FEA5C5C08D081EA030100F05BB84FEA13
:10195000410C5FEA5C5CF6D102494FF00000704731
:101960000000FF070000F87F0EF1020E2EF0030EBC
:101970005EF8046B364205D4012A43EB030515F5E6
:10198000001F12D8012841EB010C1CF5001F0CD8D8
:101990000ED14FEAD17C0CEB4C0C0CF1020C15F57E
:1019A000001F08BF4CEBD37C04E04FF0080C01E0B3
:1019B0004FEAD37C0CEB4C0526FA05F606F0070639
:1019C000B6F1040C06D20EEB860CBDE870404CF06C
:1019D000010C6047DFE80CF0090B02024FF00041F8
:1019E000A1F500214FF0000070BD194610460128F6
:1019F00051EB010418BFD4F5001484BF002001F09E
:101A0000004170BD0808A0F500114FEA3101704790
:101A1000000000000000000001020304060708099E
:101A2000000000000102030401020203040506078E
:101A300008090A0B0C0D0E0F10100000601A0008A8
:101A4000000000201800000050010008781A00086B
:101A500018000020080700007001000800000000C6
:101A600001000000100000007EFF060000000000E2
:081A700000EF00000024F40067
:04000005080000ED02
:00000001FF
